{
  "contractName": "DappToken",
  "abi": [
    {
      "inputs": [],
      "stateMutability": "nonpayable",
      "type": "constructor"
    },
    {
      "inputs": [],
      "name": "totalSupply",
      "outputs": [
        {
          "internalType": "uint256",
          "name": "",
          "type": "uint256"
        }
      ],
      "stateMutability": "view",
      "type": "function",
      "constant": true
    }
  ],
  "bytecode": "0x608060405234801561001057600080fd5b50620186a060008190555060b3806100296000396000f3fe6080604052348015600f57600080fd5b506004361060285760003560e01c806318160ddd14602d575b600080fd5b60336047565b604051603e91906064565b60405180910390f35b60005481565b6000819050919050565b605e81604d565b82525050565b6000602082019050607760008301846057565b9291505056fea2646970667358221220649b7666a6244742f56cc660c738b3122af799c40b614cd60d81ab8562bb3eed64736f6c634300080b0033",
  "immutableReferences": {},
  "source": "pragma solidity ^0.8.2;\r\n\r\ncontract DappToken {\r\n    //Constructor to initialize when smart contract is deployed\r\n    //Set the total number of tokens\r\n    //Read the total number of tokens\r\n    uint256 public totalSupply; //state variable accisible to class/contract, solidity provides getter function if variable is set to public\r\n\r\n    constructor() public { //public is visibility of the method/constructor\r\n        totalSupply = 100000; //total number comes from the ERC standard\r\n        //https//:github.com/ethereum/EIPs/blob/master/EIPS/eip-20.md\r\n    }\r\n}\r\n",
  "sourcePath": "C:\\Data\\work\\personal\\Crypto\\token\\contracts\\DappToken.sol",
  "compiler": {
    "name": "solc",
    "version": "0.8.11+commit.d7f03943.Emscripten.clang"
  },
  "schemaVersion": "3.4.5",
  "updatedAt": "2022-02-20T07:27:50.778Z",
  "networkType": "ethereum",
  "devdoc": {
    "kind": "dev",
    "methods": {},
    "version": 1
  },
  "userdoc": {
    "kind": "user",
    "methods": {},
    "version": 1
  }
}